:100000000C9483020C94CA020C94CA020C94CA0287
:100010000C94CA020C94CA020C94CA020C94CA0230
:100020000C94CA020C94CA020C943C210C940F222A
:100030000C940A1C0C94CA020C94CA020C94CA02B6
:100040000C94CA020C94CA020C94CA020C94CA0200
:100050000C94CA020C94701C0C94CA020C94CA0230
:100060000C94CA020C94CA020C94CA020C94CA02E0
:100070000C94CA020C94CA020C94CA020C94CA02D0
:100080000C94CA020C94CA020C94CA020C94CA02C0
:100090000C94CA020C94CA020C94CA020C94CA02B0
:1000A0000C94CA020C94CA020C94CA02076342362A
:1000B000B79BD8A71A39685618AEBAAB558C1D3CF9
:1000C000B7CC5763BD6DEDFD753EF6177231BF00BD
:1000D0000000803F05A84CCDB2D44EB93836A902F5
:1000E0000C50B9918688083CA6AAAA2ABE00000036
:1000F000803F00001E001F0020002100220023007E
:1001000024002500260027002D002E0035000100C8
:100110002B0014001A000800150017001C0018001E
:100120000C00120013002F003000310000000151BC
:1001300004001600070009000A000B000D000E0065
:100140000F0033003400000028000000E100000030
:100150001D001B00060019000500110010003600EC
:10016000370038000000020002510000E000E20009
:100170000000000000002C620000000000000000F1
:10018000E600E40000000000005C3A003B003C0098
:100190003D003E003F00400041004200430044005B
:1001A000450049004C002B1801000100010001002E
:1001B0000100010001004902010046004A004D0013
:1001C0000100000001000100010001000100010028
:1001D0005000510052004F000100010001000100D9
:1001E0000000010001000100010001000100010008
:1001F000110101004E004B0001000100030001004D
:100200000100E30001000000000000002C000000DD
:100210000000000001000100E700010000003500BF
:100220003A003B003C003D003E003F0040004100E2
:10023000420043004400450001004C050100C05C41
:10024000C15CC35CC45CC55CC65CC75CC85C0100C7
:10025000010001000100010000003900CB5CCC5C12
:100260000100010001000100010001000100010086
:100270000100010001000000010001000100010077
:100280000100010001000100010001000100010066
:1002900001000300010001006500010000000000F2
:1002A00000002C00000000000000010001006500BB
:1002B000010000006801F000B40078005A007F3FA0
:1002C0001F643214643214783C1E1E140A050000A8
:1002D000000000010101010101010101020202020D
:1002E00002020202020303030303030303040404E0
:1002F00004040405050505050606060606070707A6
:1003000007080808080909090A0A0A0A0B0B0B0C56
:100310000C0C0D0D0D0E0E0F0F0F101011111112F0
:100320001213131414151516161717181819191A6D
:100330001A1B1C1C1D1D1E1F1F20202122222324CE
:10034000252526272728292A2B2B2C2D2E2F2F3009
:10035000313233343536363738393A3B3C3D3E3F1F
:100360004041424344464748494A4B4C4D4F505107
:100370005253555657585A5B5C5E5F6062636466C1
:1003800067696A6C6D6E707173747678797B7C7E48
:100390008081838486888A8B8D8F91929496989A97
:1003A0009B9D9FA1A3A5A7A9ABADAFB1B3B5B7B9AD
:1003B000BBBDBFC1C4C6C8CACCCFD1D3D6D8DADC86
:1003C000DFE1E4E6E8EBEDF0F2F5F7FAFCFF040319
:1003D000300000000A034F004B00360030000000E0
:1003E0000A034F004B0036003000000004030904EC
:1003F00009025400030100A0FA09040000010301EE
:1004000001000921110100012240000705810308B4
:10041000000A090401000103000000092111010084
:10042000012236000705820308000A0904020001C0
:100430000300000009211101000122390007058392
:10044000032000011201100100000008EDFE6060B1
:1004500001000102030105010906A101050719E0D8
:1004600029E7150025019508750181020508190184
:1004700029059505750191029501750391010507FF
:10048000190029F71500250195F875018102C005AD
:10049000010980A10185021601002603001A8100CE
:1004A0002A8300751095018100C0050C0901A10186
:1004B0008503160100269C021A01002A9C02751071
:1004C00095018100C005010906A101050719E02970
:1004D000E7150025019508750181029501750881D0
:1004E0000105081901290595057501910295017508
:1004F0000391010507190029FF150026FF00950645
:1005000075088100C00011241FBECFEFDAE0DEBF06
:10051000CDBF04B603FE27C080917C0290917D027E
:10052000A0917E02B0917F028730904BA740B04BE4
:10053000D1F410927C0210927D0210927E021092F1
:100540007F0214BE84B7877F84BF0FB6F894A89546
:1005500080916000886180936000109260000FBEFF
:10056000E0E0F8E3099511E0A0E0B1E0E4E9FFE4A0
:1005700002C005900D92A233B107D9F722E0A2E3A1
:10058000B1E001C01D92AC37B207E1F70E94691ECD
:100590000C9479270C94000008950895EF92FF922F
:1005A0000F931F93CF93DF93EC018B010E94CD1A21
:1005B000982F9270F92E81FBEE24E0F80E94CD1A5C
:1005C000C230D10509F46FC030F42097E9F12197CA
:1005D000D1F0C1E010C0C330D10509F48EC0C115FF
:1005E000DC45B9F7F801C281CC2399F34FEF60E005
:1005F00080E00E94210B8C2FDF91CF911F910F91F2
:10060000FF90EF900895F801C281CC2361F0E09251
:1006100034018AE2FF2021F081EE0E9427128CE44F
:100620000E94301138C080913401882339F081EE66
:100630000E94301180913401811104C08AE20E942D
:100640002712D9CF8CE4FBCFF801C281CC23A1F0D3
:10065000E0923301282F207184FB992790F9909321
:100660003201222329F084EE0E94271285E3D8CF9D
:1006700089E2FF20A9F2FACF8091330181110DC0E8
:1006800080913201811109C089E20E942712809174
:100690003201811104C0C0E0AECF85E3F6CF84EE15
:1006A0000E943011A8CFF80182818823A1F3FF2096
:1006B00089F081EE0E94271280EE0E94301189E4B9
:1006C0000E94301189E40E94271280EE0E942712B6
:1006D00081EEA6CF80EE0E94301181EE0E94301193
:1006E00089E40E94301189E40E94271281EE0E9461
:1006F000271280EE0E942712CECFF8018281882334
:1007000051F280EE0E94301189E40E94301189E498
:10071000EECF089581E008950C94CE020E94D61485
:100720002FEF84E39CE0215080409040E1F700C02F
:1007300000000C94941CFF920F931F93CF93DF93B0
:100740008C01FC01C081D1818091890181114FC050
:100750008281882309F446C0CE010E94E619F82E52
:10076000682FCE010E949219BE018F2D0E94520661
:10077000EC01B8010E948C03882309F4F7C0B8018A
:10078000CE010E94AD08882309F4F0C0C93CFCE505
:10079000DF0709F424C108F061C0C13C9CE5D9071A
:1007A00009F4F5C0C8F5C531FCE5DF0728F5C2300E
:1007B0008CE5D80708F09EC1C1159CE5D90709F45E
:1007C000D0C0C130DC4509F4D8C081E080933A0143
:1007D00080933B01C801DF91CF911F910F91FF9052
:1007E0000C948A03CE010E94BE19F82EBDCFCE0113
:1007F0000E94E619BE01BACFC531FCE5DF0709F456
:1008000025C2C03CDC4509F7F8018281882309F440
:10081000ADC00E945D0DAAC0F8018281C53CFCE517
:10082000DF0709F4CDC068F4C33CECE5DE0709F44A
:10083000C2C008F4B7C0882309F498C00E94240CF1
:1008400095C0C73C9CE5D90709F4C4C008F4BDC0F5
:10085000882309F48BC00E948B0C88C0C03DFCE546
:10086000DF0709F408C1A8F5CC3C9CE5D90709F4D9
:10087000C5C090F4CA3CFCE5DF0709F4B7C0CB3C27
:10088000DC4509F0A2CFF8018281882309F46EC00B
:1008900081E00E94EF0C6AC0F8018281CE3CFCE549
:1008A000DF0709F4D4C008F4BEC0882309F45EC091
:1008B0000E94D00A6F3071058105910540F00E94B9
:1008C000D00A643171058105910508F471C08FE08B
:1008D000E0CFC43DECE5DE0709F495C1C0F4F801B2
:1008E0008281C23DFCE5DF0709F4E0C008F4D9C00D
:1008F000882309F471C110923A010E943A1C909326
:1009000037018093360182E00E9476122FC0C83DE5
:10091000ECE5DE0709F4DEC0C93DFCE5DF0709F4BC
:10092000E2C0C53DDC4509F050CFF801828181115C
:100930006EC180913B01811187C1809138019091F6
:1009400039010E94461C8639910508F07DC180E27C
:100950000E947D1288E20E94301188E20E942712D4
:1009600005C0F801828181110E948E0380E0DF9131
:10097000CF911F910F91FF900895F80182818823F4
:10098000A9F380912102816080932102EFCFF801C9
:100990008281882359F30E94CD1A827249F00E9405
:1009A000FC0CE4CF882311F30E94CD1A8272B9F3B4
:1009B0000E94F20CDBCF8823C9F20E940C0CD6CF28
:1009C0008823A1F20E94430CD1CF882379F20E94A0
:1009D0005B0CCCCF882351F20E94730CC7CFF80177
:1009E0008281882319F20E94DE0AC0CFF801828139
:1009F000882309F4BBCF0E94F30AB8CFF8018281A3
:100A0000882309F4B3CF0E94D00A623071058105B2
:100A1000910538F00E94D00A653071058105910575
:100A200038F282E036CF882309F4A0CF0E94D00AA2
:100A3000663071058105910540F00E94D00A68304A
:100A400071058105910508F4B3CF86E022CF882394
:100A500009F48CCF0E94D00A693071058105910597
:100A600040F00E94D00A6E3071058105910508F4AE
:100A70009FCF89E00ECFF8018281882309F476CFD9
:100A80000E94D00A653171058105910540F00E94F0
:100A9000D00A673171058105910508F489CF85E198
:100AA000F8CE882309F462CF88E1F3CE882309F4D5
:100AB0005DCF0E94D00A693171058105910540F032
:100AC0000E94D00A623271058105910508F470CF49
:100AD00089E1DFCEF8018281882309F447CF80E0E5
:100AE0000E94061F43CFF8018281882309F43ECF7C
:100AF00082E0F6CFF8018281882309F46BCE0E9450
:100B00002A1B811102C00E94091B0E943D1B90E01C
:100B100090936E0280936D02FE01E350FC4580913C
:100B20006D028160E231F10538F4E558F84D0C941E
:100B30002B2780916D02826080936D0280916D02FF
:100B40000E94411B0E94D61411CF80916D028460D7
:100B5000F3CF80916D028860EFCF80916D0280614C
:100B6000EBCF80916D028062E7CF80916D0280644F
:100B7000E3CF80916D028068DFCF80916D028C6041
:100B8000DBCF80916D028E7FD7CF80916D028D7FFC
:100B9000D3CF80916D028B7FCFCF80916D02877F05
:100BA000CBCF80916D028F7EC7CF80916D028F7DFC
:100BB000C3CF80916D028F7BBFCF80916D028F7705
:100BC000BBCF80916D02837FB7CF90916D02892F4B
:100BD00097FB87F98058B0CF80913A0181110FC0FF
:100BE00080913601909137010E94461C863991050B
:100BF00030F486E20E94301186E20E94271282E0E1
:100C00000E947D12B3CEF8018281882351F01092A8
:100C10003B010E943A1C909339018093380180E295
:100C200073CE80913B0181110FC08091380190916A
:100C300039010E94461C8639910530F487E20E94F2
:100C4000301187E20E94271280E2DACF0E94CD1A8B
:100C5000F8019281992381F08A7A91E009F490E079
:100C600090933501811106C089E20E94561A0E94B4
:100C70009A1A7CCE85E3F9CF80913501811104C0A9
:100C800089E20E945D1AF3CF85E3FBCF0C94FC0848
:100C90000C94FE080C9489030C944A0690E080E0C2
:100CA00008950895972F70E02FE0929F600D711DB9
:100CB0001124FB019BE4899FE00DF11D1124EE0F2F
:100CC000FF1FEE50FF4F859194910895FC01EE0FA8
:100CD000FF1FEC54FD4F859194910895CF93DF93BE
:100CE0000E9452060E940E08EC01811520E5920731
:100CF00008F042C0811530E4930708F007C1883E30
:100D0000910528F5803E910508F09BC0883A910531
:100D100088F4853A910508F08AC08130910509F47C
:100D200090C0009709F48DC0049708F08AC0D0E005
:100D3000C0E087C08D3B910508F487C0805C9109B5
:100D4000C03CD105A0F30E946606EC017AC0811573
:100D5000904250F4C11581E0D80708F072C0C03F3E
:100D6000D10528F3D0656DC0C11590E3D90708F00F
:100D7000C3C0CE019F70E7CF811525E5920758F5D6
:100D8000811534E5930708F0F0C0811542E594071A
:100D900050F4C11581E5D80708F4BBC0DC2FCC277F
:100DA000C16FD06A4EC0982F969596959E0123707C
:100DB0003327C115D34508F0C9C0C1E0D0E002C057
:100DC000CC0FDD1F2A95E2F720E2929FC00111248B
:100DD000C82BD92BB9C0C11589E5D80780F4C11536
:100DE00098E5D90708F0C6C0C11526E5D20708F076
:100DF0009ECFDC2FCC27CC27DF71D06222C0CE0162
:100E0000C1153AE5D30708F4BAC09056811590424F
:100E100008F08DCF8D2F8F710E94890890E0982F58
:100E2000882788279F719C012C2BE901E6CF853A02
:100E3000910509F4AEC0863A910509F0ADC0C2E84B
:100E4000D0E4CE01DF91CF910895883A910509F45D
:100E5000A6C0893A910509F4A5C08A3A910509F41A
:100E6000A4C08B3A910509F4A3C08C3A910509F40A
:100E7000A2C08B3B910509F4A1C08C3B910509F4FC
:100E8000A0C08D3A910509F49FC0803B910509F4FB
:100E90009EC08E3A910509F49DC08F3A910509F4E0
:100EA0009CC0813B910509F49BC0823B910509F4EC
:100EB0009AC0833B910509F499C0843B910509F4DC
:100EC00098C0853B910509F497C0863B910509F4CC
:100ED00096C0873B910509F495C0883B910509F4BC
:100EE00094C0893B910509F493C08A3B910509F4AC
:100EF00092C0C0E0D4E4A5CFCE019927D3FF03C0B0
:100F0000EC01D86C9ECFEC01D06C9BCFDF70D06A27
:100F100098CFCE01E4E096958795EA95E1F7837046
:100F20002C2F26952695237090E2299F900111245D
:100F3000382B8C2F8370C1E0D0E002C0CC0FDD1FB6
:100F40008A95E2F7C22BD32BDC687BCFC1E0D0E0DF
:100F500002C0CC0FDD1F2A95E2F730E2939FC0015B
:100F60001124C82BD92BDA686CCFD82FCC27C46FAB
:100F7000D06A67CFDC2FCC27C06FD06A62CF34E055
:100F8000969587953A95E1F78F70CF70C06ED82F00
:100F9000BECFC1E8D0E455CFC3E8D0E452CFC2EE13
:100FA000D4E44FCFC9EED4E44CCFCAEED4E449CF59
:100FB000C5EBD4E446CFC6EBD4E443CFC3EBD4E4D3
:100FC00040CFC4EBD4E43DCFC7EBD4E43ACFCCEC74
:100FD000D4E437CFCDECD4E434CFC3E8D5E431CF7B
:100FE000CAE8D5E42ECFC2E9D5E42BCFC4E9D5E4D5
:100FF00028CFC1E2D6E425CFC3E2D6E422CFC4E2B3
:10100000D6E41FCFC5E2D6E41CCFC6E2D6E419CFA2
:10101000C7E2D6E416CFCAE2D6E413CF82389105F0
:1010200049F1B0F48133910509F462C048F4893282
:10103000910509F456C08A32910509F460C00895FB
:101040008533910509F446C08933910599F00895D7
:10105000833E910531F138F4803E910591F0823E56
:101060009105B1F00895863E910521F1873E9105E5
:1010700051F1089520916D022370D9F080EE90E037
:10108000089520916D0220FF14C089E390E0089537
:1010900020916D0222FF0DC024FD09C083EE90E077
:1010A000089520916D0222FD31C024FF02C090E01E
:1010B00080E0089520916D0223FFFBCF24FDF7CF40
:1010C00087EE90E0089520916D0223FFEECF86EE2B
:1010D00090E0089520916D0225FFEBCF89E290E02A
:1010E000089520916D0225FFE4CF85E390E00895F7
:1010F00020916D0226FFDDCF8AE290E008952091D5
:101100006D0226FFD6CF81E390E0089582EE90E055
:10111000089590916D0292FF06C0282F2871283003
:1011200069F4877F846093FF06C0282F28712831D7
:1011300061F4877E846194FD877E0895282F247151
:10114000243089F78B7F8860EECF282F24712431DB
:1011500091F78B7E8861EFCF08950F931F93CF9304
:101160008C01FB018281811106C0C1E08C2FCF91DF
:101170001F910F910895C0914901C11125C00631F9
:101180001C4599F70E94AC0881E0809349010E94B8
:101190003A1C909348018093470110923C011092B1
:1011A0003E0110923D011092400110923F011092B9
:1011B0004201109241011092440110924301109299
:1011C000460110924501D2CF80914701909148018C
:1011D0000E94461C8C32914040F680913C01E82FE1
:1011E000F0E0EE0FFF1FE35CFE4F118300838F5F83
:1011F00080933C01C0E0BACF0C94CC020C94CD0299
:10120000CF93DF9385B7806885BF85B7806885BF3A
:10121000AEE1B1E043E251E0C1E0D0E08D91E82FD2
:10122000E295EF70F0E061A18F709E0101C0220F86
:101230008A95EAF7922F9095962391A382A1822B0B
:1012400082A34A175B0751F7AFE0B1E061E070E0BD
:101250008D91E82FE295EF70F0E041A18F709B0136
:1012600001C0220F8A95EAF7922F9095942391A3BB
:1012700082A1822B82A381E0AE31B80749F7109298
:1012800055011092540110924B0110924A01109294
:1012900057011092560110924D0110924C0110927C
:1012A00059011092580110924F0110924E01109264
:1012B0005B0110925A01109251011092500110924C
:1012C0005D0110925C011092530110925201DF9166
:1012D000CF910C9446064F925F927F928F929F928D
:1012E000AF92BF92CF92DF92EF92FF920F931F9334
:1012F000CF93DF939AE4492E91E0592E2EE1E22E0E
:1013000021E0F22E01E010E099249394E201A990EB
:10131000B9902E01DE011E921E92F70181917F018C
:10132000E82FE295EF70F0E091A18F70980101C075
:10133000220F8A95EAF7892F822B81A382A1822E20
:101340008094882182A380EA8A95F1F78FE0C82EE5
:1013500081E0D82E90E080E0E60179916E01472F80
:1013600042954F7050E0EA0178A04D915C91119741
:101370007F70E80102C0CC0FDD1F7A95E2F7BE0155
:10138000672109F072C0B801082E02C0660F771FEE
:101390000A94E2F7462B572B11965C934E930196D5
:1013A0008F309105C9F681A1882281A282A1282BC4
:1013B00022A38D919C91A816B90641F090925E01EE
:1013C0000E943A1C9093600180935F01D4E54D1612
:1013D000D1E05D0609F09ACF80915E01882391F1FA
:1013E00080915F01909160010E94461C069750F128
:1013F00080914A0190914B01909355018093540143
:1014000080914C0190914D0190935701809356012A
:1014100080914E0190914F01909359018093580112
:10142000809150019091510190935B0180935A01FA
:10143000809152019091530190935D0180935C01E2
:1014400010925E010E94480681E0DF91CF911F91CA
:101450000F91FF90EF90DF90CF90BF90AF909F9053
:101460008F907F905F904F90089570E060E092CFF2
:10147000E82FF0E0EE0FFF1FEC5AFE4F80819181C4
:1014800008950895CF92DF92EF92FF920F931F93EA
:10149000CF93DF93E901662309F466C0E42EF12CB3
:1014A000EFEFF0E0E61BF109EE9D8001EF9D100DDE
:1014B000FE9D100D1124212FE12FFF27EE1AFF0AA8
:1014C0005CE3C52ED12CB6010E940327FB01BC01B1
:1014D000E69EC001E79E900DF69E900D1124B60188
:1014E0000E940327E230F10589F168F4812F262F4D
:1014F000210F309781F0242F461B319761F080E057
:1015000020E040E008C0E430F10551F128F1842FDB
:10151000861B3597A1F7E42FF0E0E253FD4F44918D
:10152000E22FF0E0E253FD4F9491E82FF0E0E25318
:10153000FD4FE49149839883EA83DF91CF911F9116
:101540000F91FF90EF90DF90CF900895862F810F3D
:10155000E42F412F2E2FDFCFE42FE61B842FF9CF6E
:10156000842F462F410FD7CF842F242FD4CF88E04C
:1015700090E00C943927AB01BC0188E090E00C941A
:101580005727E6E4F2E083E0808311828FEF8283C5
:101590008383148260817181828193810C94BB0A60
:1015A0006091460260FF06C066956F7370E090E040
:1015B00080E0089560E070E0CB01089580914A02D8
:1015C00090E001968430910514F083E090E08093E0
:1015D0004A026091460270914702809148029091C0
:1015E00049020C94BB0A80914A028150990B97FFE3
:1015F00002C090E080E08430910514F083E090E038
:1016000080934A026091460270914702809148029D
:10161000909149020C94BB0A80914602EBE4F2E0FF
:1016200080FF06C06AE070E08BE492E00C94EC0F5F
:10163000118210821282339682E0E936F807C1F7F0
:10164000F1CF9091460290FF0CC0EBE4F2E0818371
:1016500060834283339692E0E936F907C1F70C9430
:101660000C0B0895CF93DF9300D00F92CDB7DEB768
:101670002091460220FF0AC09E012F5F3F4F0E942B
:10168000420A4B8169818A810E94210B0F900F9041
:101690000F90DF91CF9108953F924F925F926F929A
:1016A0007F928F929F92AF92BF92CF92DF92EF92F2
:1016B000FF920F931F93CF93DF9300D00F92CDB77C
:1016C000DEB78C01462E542E322E8091460280FFCA
:1016D00030C0982F9E77923009F040C09E012F5F56
:1016E0003F4FC8010E94420A4B8169818A810E9452
:1016F000210B8091460200FB87F980934602902FD0
:101700009695809147028078892B10FB87F980930A
:1017100047024092480250924902332051F06091B2
:1017200046027091470280914802909149020E94BE
:10173000BB0A0F900F900F90DF91CF911F910F91E7
:10174000FF90EF90DF90CF90BF90AF909F908F90E1
:101750007F906F905F904F903F900895E82FE695AF
:10176000EF739EE39E0F9F73943018F450904902DC
:10177000C0CF9AE39E0F9F73993068F4881F882723
:10178000881F90914702292F220F022F082B97FBC9
:10179000112710F9AECF87E28E0F8F738A3008F0D1
:1017A000A8CFE951FF0B21E0E0FD2FEFEE7FEC54D5
:1017B000FD4F859194916AE070E00E940327260313
:1017C0003001279F700C1124680188E9C81A8EEF38
:1017D000D80A8BE4E82E82E0F82E99E6A92E92E052
:1017E000B92E28E6822E99249394C601B4010E9452
:1017F00003279701452D642D0E94420AC60CD71C71
:1018000083E0E80EF11CAE14BF0479F70E940C0BC4
:1018100070CF21E00C944C0BE6E4F2E02081221F13
:101820002227221F30914702432F440F842F822BFF
:1018300037FB992790F9089668E671E00E94172710
:10184000438162810C94090C20914602221F2227B9
:10185000221F30914702432F440F842F822B37FBE6
:10186000992790F98830910540F4805A9E4F409115
:101870004902609148020C94090C089768E671E0EF
:101880000E941727F4CF60914802683F90F4685F88
:1018900080914602881F8827881F90914702292F30
:1018A000220F97FB992790F940914902822B0C94C3
:1018B000090C6FEFEDCF60914802683090F06850EE
:1018C00080914602881F8827881F90914702292F00
:1018D000220F97FB992790F940914902822B0C9493
:1018E000090C60E0EDCF40914902483F90F4485F19
:1018F00080914602881F8827881F90914702292FD0
:10190000220F97FB992790F960914802822B0C9443
:10191000090C4FEFEDCF40914902483090F048500C
:1019200080914602881F8827881F90914702292F9F
:10193000220F97FB992790F960914802822B0C9413
:10194000090C40E0EDCF20E00C944C0B9091460246
:1019500090FF44C09178811128C092609093460214
:10196000662351F0609146027091470280914802CF
:10197000909149020E94BB0A80914602982F9E775F
:101980009230D9F410927601881F8827881F909191
:101990004702292F220F97FB992790F9409149027E
:1019A00060914802822B0C94A30C833210F0946453
:1019B000D5CF8F73880F982BD1CF982F96959F7383
:1019C0002EE3290F2F73273120F491E090937601B5
:1019D000DBCF995D9F739A30B8F6D4CF089561E05C
:1019E0000C94A60C8091460286958F738F5F83328C
:1019F00008F081E00C94EF0C8091460286958F737D
:101A0000815009F482E20C94EF0CE6E4F2E080816C
:101A10008160808386958F730C94EF0C60E00C944A
:101A2000A60C8091210281608093210281E0809345
:101A300077010E942A1B811104C00E94091B0E9489
:101A4000C10A0E94B70A60934602709347028093CE
:101A50004802909349026E7761F40E94C10A0E9485
:101A6000B70A6093460270934702809348029093AE
:101A7000490281E0809376018091460280FF04C094
:101A800086958F730C940E0D0895E6E4F2E0808144
:101A90008E7F808360817181828193810E94BB0AE5
:101AA000109276012FEF80E792E021508040904025
:101AB000E1F700C000000C940C0B8091460280FD01
:101AC0000C94450D0C94050DCF93C82F8091740193
:101AD000909175010E94461CEC2FF0E0E653FD4FFB
:101AE000E491E817190611F008F042C00E943A1C70
:101AF00090937501809374016091730170E090E0A0
:101B000080E00E94042520E030E04FE753E40E948B
:101B100027242BED3FE049E450E40E942D260E944B
:101B20009A260E94A1242BE43AE34EE25FE30E944E
:101B3000BA2320EF3BEF48ED52E40E942D260E948D
:101B4000D324462F80914602881F8827881F9091B2
:101B50004702292F220F97FB992790F9609148029D
:101B6000822B0E94320B809173018F5F80937301EF
:101B7000CF910895CF93C82F8091710190917201F8
:101B80000E94461CEC2FF0E0E953FD4FE491E8176A
:101B9000190609F0E8F40E943A1C909372018093B0
:101BA0007101409149026091480280916F019091CA
:101BB00070010E94320B80916F019091700101962B
:101BC00068E671E00E9403279093700180936F0193
:101BD000CF910895CF92DF92FF920F931F93CF93EF
:101BE000DF93F82E80916D0190916E010E94461C4A
:101BF000EF2DE695F0E0EC53FD4FE491E817190660
:101C000009F0A8F50E943A1C90936E0180936D0133
:101C10000BE412E0D0E0C0E088E6C82EDD24D394C7
:101C200080916B0190916C018C0F9D1FB6010E94F9
:101C30000327980140914902609148020E94420A9C
:101C4000A4960D5F1F4FC83681E0D80749F70E9460
:101C50000C0B80916B0190916C01F0FE10C001960D
:101C6000BE010E94032790936C0180936B01DF916A
:101C7000CF911F910F91FF90DF90CF900895019722
:101C8000F2CFCF92DF92EF92FF920F931F93CF93F9
:101C9000DF93C82FFF24FA9480FD02C0FF24F39441
:101CA0008091690190916A010E94461CC695EC2FB3
:101CB000F0E0EF53FD4FE491E817190611F008F03A
:101CC00051C00E943A1C90936A01809369010BE411
:101CD00012E0D0E0C0E0F80111821082128294E09C
:101CE000C92ED12CE12C809168018E0D87FD865F75
:101CF000082E000C990B8C179D07E9F4809149027E
:101D00008C9DA0018D9D500D11245595479555959D
:101D1000479580914602881F8827881F9091470227
:101D2000592F550F97FB992790F998016091480218
:101D3000852B0E94420AEF0CF1E0CF1AD10899F6E8
:101D400021960D5F1F4FCA30D10529F60E940C0B5A
:101D50008091680191E0F91210C081110CC089E0F6
:101D600080936801DF91CF911F910F91FF90EF90C9
:101D7000DF90CF9008958150F3CF90E00196BE019F
:101D80000E941727EDCF0F931F93CF93DF93C82F98
:101D900080916601909167010E94461CEC2FF0E053
:101DA000E254FD4FE491E817190611F008F052C013
:101DB0000E943A1C9093670180936601CBE4D2E0C5
:101DC000FE01118210821282339682E0E936F80712
:101DD000C1F710E000E080916501082E000C990B1E
:101DE00008171907E4F180910101082E000C990BE6
:101DF00080179107A4F180914602881F8827881FC9
:101E000090914702592F550F97FB992790F99E0102
:101E10004091490260914802852B0E94420A0F5F5F
:101E20001F4F23960A301105B1F60E940C0B8091CA
:101E3000000190916501980F909365012091010137
:101E4000280F20930101121614F499301CF081958B
:101E500080930001DF91CF911F910F910895198216
:101E600018821A82DCCFEF92FF920F931F93CF93C9
:101E7000DF9380916301909164010E94461C883E2B
:101E80009340C8F10E943A1C9093640180936301CF
:101E9000C0916101D09162012196C170DD27D0937C
:101EA0006201C09361018BE4E82E82E0F82E10E01D
:101EB00008E7812F86958C0F9D2F911D81709927A2
:101EC00097014091490260914802FC010E9FC001B8
:101ED0000F9F900D11240E94420A1F5FF3E0EF0E46
:101EE000F11C1A3031F7DF91CF911F910F91FF90C4
:101EF000EF900C940C0BDF91CF911F910F91FF90FD
:101F0000EF90089580917601882391F19091460297
:101F1000892F86958F732EE3280F2F73243018F4A2
:101F200082500C94640D2AE3280F2F73233018F489
:101F300086500C94BA0D27E3280F2F73263018F41F
:101F400089500C94EA0D21E3280F2F73263018F4E2
:101F50008F500C94410E2BE2280F2F73233018F46E
:101F600085510C94C30E9E77903311F40C94330F6B
:101F7000089531B3242F2095232331B3432B3FB74A
:101F8000F894680F791F8617970711F43FBF0895DB
:101F9000FC015191CF01E8E041BB000000C057FFB8
:101FA00021BB550F000000C000C000C021BB00C015
:101FB000EA9591F7E8CF20B3242B20BB9B01220F99
:101FC000331F620F731F0E94B90F87EC90E00197D7
:101FD000F1F700C00000089540E40C94DB0F9093EB
:101FE0007D0180937C010895E0917C01F0917D0159
:101FF000309721F00190F081E02D099480E0089560
:10200000E0917C01F0917D01309721F00280F38115
:10201000E02D0994089520917A0130917B012817D1
:10202000390771F090937B0180937A01E0917C01F4
:10203000F0917D01309721F00680F781E02D099421
:10204000089520917801309179012817390771F0AE
:102050009093790180937801E0917C01F0917D016A
:10206000309721F00084F185E02D099408950895BA
:102070000C94371081E008950E94311C0E940009E1
:102080000E94B81C0C94110D5F926F927F928F92F8
:102090009F92AF92BF92CF92DF92EF92FF920F93F7
:1020A0001F93CF93DF93CDB7DEB72A970FB6F8947F
:1020B000DEBF0FBECDBF0E946B090E943A1088237D
:1020C00009F478C09FE7A92E91E0B92E10E000E056
:1020D00088248394912C502E802F0E94380A7C01F2
:1020E000F501C190D1905F01C816D90609F45CC012
:1020F0008091210281FD0E94410A90E080E0CE247F
:10210000DF243401082E02C0660C771C0A94E2F723
:10211000960126213721232B09F441C08E835F824B
:10212000E620F72081E0EF2809F480E088870E940C
:102130003A1C8160782F9A8789874E815F816885F4
:102140008A850E940111000F111FF801E158FE4F0E
:102150008081918168267926718260820E94F40FC5
:1021600090917E018917B9F10E94F40F80937E014E
:102170002A960FB6F894DEBF0FBECDBFDF91CF9188
:102180001F910F91FF90EF90DF90CF90BF90AF9095
:102190009F908F907F906F905F900C944C0601966B
:1021A0008F30910509F0ADCF0F5F1F4F053011053E
:1021B00009F091CF8FEF89838A831B820E943A1C9A
:1021C0008160782F9D838C8349815A816B818D81B9
:1021D0000E940111C3CF2A960FB6F894DEBF0FBE3E
:1021E000CDBFDF91CF911F910F91FF90EF90DF90C6
:1021F000CF90BF90AF909F908F907F906F905F90A7
:102200000895CF93DF93CDB7DEB72B970FB6F89431
:10221000DEBF0FBECDBF4F83588769877A878B8714
:102220001E821D8285E0FE013796DE011196019027
:102230000D928A95E1F749815A816B817C818D816C
:102240009E812B960FB6F894DEBF0FBECDBFDF91F7
:10225000CF910C947417FC01808191810C94281A01
:10226000882309F4F3C08238B9F40E94F40F81FD89
:10227000EDC089E30E94561A0E949A1A2FEF81EE50
:1022800094E0215080409040E1F700C0000089E3D5
:102290000E945D1A0C949A1A8338A1F40E94F40FDC
:1022A00080FDD4C083E50E94561A0E949A1A2FEF2F
:1022B00081EE94E0215080409040E1F700C00000A2
:1022C00083E5E6CF8438A1F40E94F40F82FDBEC0FE
:1022D00087E40E94561A0E949A1A2FEF81EE94E02A
:1022E000215080409040E1F700C0000087E4D0CF4B
:1022F0009CEF980F913A18F40E94561ACBCF90E2B7
:10230000980F983050F4877091E001C0990F8A952A
:10231000EAF7892F0E94D01ABDCF9BE5980F933022
:1023200070F4853A31F0863A39F083E890E00C9405
:102330000B1081E890E0FBCF82E890E0F8CF98E5C1
:10234000980F953108F082C0883A09F440C0893A64
:1023500009F440C08A3A09F440C08B3A09F440C0FD
:102360008C3A09F440C08B3B09F440C08C3B09F423
:1023700040C08D3A09F440C0803B09F440C08E3A19
:1023800009F440C08F3A09F440C0813B09F440C0D1
:10239000823B09F440C0833B09F440C0843B09F40C
:1023A00040C0853B09F440C0863B09F440C0873BF0
:1023B00009F440C0883B09F440C0893B09F440C09F
:1023C0008A3B09F440C090E080E00C94211082EE3A
:1023D00090E0FBCF89EE90E0F8CF8AEE90E0F5CF69
:1023E00085EB90E0F2CF86EB90E0EFCF83EB90E0CF
:1023F000ECCF84EB90E0E9CF87EB90E0E6CF8CEC7C
:1024000090E0E3CF8DEC90E0E0CF83E891E0DDCF8A
:102410008AE891E0DACF82E991E0D7CF84E991E0D0
:10242000D4CF81E292E0D1CF83E292E0CECF84E2BA
:1024300092E0CBCF85E292E0C8CF86E292E0C5CFB2
:1024400087E292E0C2CF8AE292E0BFCF089588236C
:1024500009F44BC0823871F40E94F40F81FF45C02B
:1024600089E30E94561A0E949A1A89E30E945D1A13
:102470000C949A1A833859F40E94F40F80FF35C0E7
:1024800083E50E94561A0E949A1A83E5EFCF84389A
:1024900059F40E94F40F82FF28C087E40E94561A64
:1024A0000E949A1A87E4E2CF9CEF980F913AF0F2DB
:1024B00090E2980F983050F4877091E001C0990F26
:1024C0008A95EAF7892F0E94D61AD2CF9BE5980FFA
:1024D000933020F490E080E00C940B10885A853102
:1024E00020F490E080E00C9421100895882321F0DE
:1024F0000E94D01A0C949A1A0895882321F00E9401
:10250000D61A0C949A1A08958F929F92AF92BF9206
:10251000CF92DF92EF92FF920F931F93CF93DF93AF
:102520007C01D62FC72FFC01058102950F70128107
:1025300011110E94ED1A0E94931AC82E882371F07F
:102540001123B1F080E28D0F883090F082E00E947C
:102550007D1A0E94931A91E0C82EC926DC2ED294CF
:102560009FE0D922ED2DF0E0E357F84D0C942B2796
:10257000C12CF4CF0C2F0F70C07F11F00295007F9B
:102580001123A9F0002359F080E28D0F883010F05C
:10259000D11109C0802F0E94D01A0E949A1A8D2F43
:1025A0000E94301114C0802F0E94E01AF6CF8D2FA8
:1025B0000E942712002359F080E28D0F883010F01E
:1025C000D11133C0802F0E94D61A0E949A1A98E027
:1025D000D91639F0D91648F086EF8D0D8F708230FC
:1025E00020F40E94F40F0E944C06CC2009F497C1FD
:1025F0000E94701A80FD93C1F70112820E946A1A2C
:102600000E94F618C7010E949C140E946A1ADF916A
:10261000CF911F910F91FF90EF90DF90CF90BF90DF
:10262000AF909F908F900C941719802F0E94E61AFC
:10263000CCCFFC2FFF70BF2EC07FC03219F0B294F8
:1026400080EFB822DD2369F0D13049F1112391F1F7
:10265000002351F1F701858180FFA1CF8F70858321
:1026600023C0112381F0011106C00E94061B8B2993
:102670000E947612ACCF0130C1F70E94061B8B2955
:102680000E94001BA4CF011106C00E94031B8B2DCA
:102690000E947D129CCF013009F499CFF6CF11230F
:1026A00029F0063008F093CF8B2DE2CF053008F0EB
:1026B0008ECFEDCF002359F38D2F0E94271287CFA5
:1026C0008C2F86958695837069F0813009F07FCFD5
:1026D0008D2F9C2F9370111102C090E080E00E941A
:1026E000211075CF8D2F9C2F9370111102C090E097
:1026F00080E00E940B106BCF8C2F837009F047C0D5
:10270000111165CF2D2F229526952770220F220FAC
:102710006D2F6F70862E912CB12CA12C022E04C02F
:10272000880C991CAA1CBB1C0A94D2F760E070E0CC
:10273000CB01D4FF0FC06FE070E080E090E004C0F8
:10274000660F771F881F991F2A95D2F7609570959D
:1027500080959095C695C695C370C23051F080F4AF
:10276000682979298A299B29C13071F00E94A8180B
:102770002ECF682979298A299B290E94BA1827CF48
:102780000E94A818C501B4010E94961820CF869512
:10279000112311F08C2F8170882309F418CF2D2F6D
:1027A000229526952770220F220F6D2F6F70862E8F
:1027B000912CB12CA12C022E04C0880C991CAA1CAF
:1027C000BB1C0A94D2F760E070E0CB01D4FF0FC0CD
:1027D0006FE070E080E090E004C0660F771F881F14
:1027E000991F2A95D2F76095709580959095C6951A
:1027F000C695C370C23051F080F4682979298A29BE
:102800009B29C13071F00E946D19E1CE68297929A8
:102810008A299B290E947F19DACE0E946D19C50171
:10282000B4010E945B19D3CEE0E2ED0FE53108F070
:102830004DC0F0E0E356F84D0C942B27DF708C2F41
:102840008F71112321F00E94F6188D2F11CF0E9455
:1028500017198D2F1DCF112341F0053008F0B7CE89
:102860008C2F8F710E943A19B2CE063008F0AFCE8D
:10287000F7CF8C2F8F71112339F00E94F618A7CE55
:102880008C2F8F711123C9F30E941719A0CE112329
:1028900029F08C2F8F710E94E11899CE0E94DC18CC
:1028A00096CE112349F0CF718C2F0E94F61863E069
:1028B0008C2F0E94741A8BCE81E00E947D1A023008
:1028C00008F485CE82E00E947D1A81CE112329F082
:1028D000011165CE8C2F8F71D0CF002369F0D933D1
:1028E00009F0EACEFFEF27EE83E0F1502040804070
:1028F000E1F700C00000E0CE8C2F8F71C5CF4C2FC8
:102900004F706D2FC7010E944E060E940E185FCEB9
:102910004C2F4F706D2FC7010E94510658CEDF918A
:10292000CF911F910F91FF90EF90DF90CF90BF90CC
:10293000AF909F908F9008950F931F93CF93DF9345
:10294000EC018B819C81892B29F0888199818923D5
:102950008F3F29F4DF91CF911F910F910895CE0100
:102960000E949B038823B1F3688179818A810E9448
:10297000321A8C010E9491190E949318B801CE015D
:10298000DF91CF911F910F910C9484120E94ED1A48
:102990000E94FD1A0E94641A0E949A1A90E080E038
:1029A0000E940B1090E080E00C9421100E94DD1A30
:1029B0000C94C6140E94281AE92FE295EF70E25099
:1029C000EE3070F4F0E0EE54F84D0C942B27803F7D
:1029D00019F020F4803E20F481E00895843FE1F373
:1029E00080E00895803EC0F3813FD1F7F5CF93FB9F
:1029F000882780F90895CF93DF9300D000D00F92FD
:102A0000CDB7DEB70F900F900F900F900F90DF9122
:102A1000CF910895CF93DF9300D000D000D0CDB7F1
:102A2000DEB726960FB6F894DEBF0FBECDBFDF919E
:102A3000CF9108951F93CF93DF93C0918A0116E041
:102A400080918B018C1304C0DF91CF911F91089569
:102A5000D0E01C9FF0011D9FF00D1124E457FE4FA4
:102A60004081518162817381848195810E940A1520
:102A70002196C770E5CF4091BC015091BD01609196
:102A8000BE017091BF018091C0019091C1010C9471
:102A90000A151F93CF93DF938091C101807FC1F40A
:102AA0008091BE018823A1F080918A01C0918B01A1
:102AB0006091BC017091BD014091BF015091C00176
:102AC000D62FD723DA01A095B09516E0C81304C01D
:102AD000DF91CF911F91089590E04115510511F0BC
:102AE000DF3F31F401968770F1CF2A0F3B1F17C0EB
:102AF000189FF001199FF00D1124E457FE4F21811A
:102B00002713F0CF20812613EDCF22812111EACFA8
:102B1000238134812417350740F3241B350B2639D4
:102B2000310500F72091C1012F7020612093C10170
:102B300026E0289FF001299FF00D1124EF56FE4F4B
:102B400080818F70806180838CEB91E00E949C1467
:102B5000DF91CF911F910C941A15BF92CF92DF9203
:102B6000EF92FF920F931F93CF93DF93CDB7DEB712
:102B700061970FB6F894DEBF0FBECDBF8C0185E024
:102B8000F801DE011D9601900D928A95E1F7D801BA
:102B90004C9111965C9111971296EC90129780913E
:102BA000BF019091C001009709F47FC12091BC0141
:102BB0003091BD01622F63236F3F09F476C11396F4
:102BC000CD90DC90B090BE01BB2009F411C1C816B5
:102BD000D906D0F1F601E81BF90BCF01FF24F394DD
:102BE0008639910508F0F12C8091C101982F907FD2
:102BF000FF2009F4B8C091117FC0FE2C351329C005
:102C0000241327C0E11025C08F7080618093C1011B
:102C10000E943B158CEB91E00E949C148091C101B5
:102C2000D80115968C938F2D61960FB6F894DEBF60
:102C30000FBECDBFDF91CF911F910F91FF90EF900D
:102C4000DF90CF90BF900895809590958C0D9D1D3D
:102C5000C5CFCD2829F0852F84238F3F09F041C1AE
:102C600080E0B82FB170DB2E80FF3CC080918A01DC
:102C700020918B0136E0821315C04D875E878D85CC
:102C80009E850E94281A292F22952F702230F0F05D
:102C9000243018F59F70F1F0F8019581907FD1F400
:102CA000D12C1EC090E0389FF001399FF00D112407
:102CB000E457FE4F6181651306C06081641303C051
:102CC0006281E6120FC001968770D5CF9F7011F018
:102CD000882331F3805E883018F3C8010E949C1469
:102CE000FD2CA1CFEE2009F49ECF8091C10181601F
:102CF0008093C101F12C97CF351306C0241304C073
:102D0000D801EE2009F49AC04D875E878D859E8597
:102D10000E94DA14882319F1EE2009F18091C10193
:102D2000803270F02091BC013091BD0138872F8333
:102D30001986DB86CA868C87CE0107960E949C1472
:102D400086E0F801ACEBB1E001900D928A95E1F7D5
:102D50000E9449150E943B15FF24F39464CFC801DB
:102D60000E949C14F9CF911113C07C2DD98AC88A76
:102D70006E2D89890E94FB148CEB91E00E949C14BB
:102D800086E0ECEBF1E0DF011D928A95E9F763C084
:102D9000351312C0241310C0E1100EC0F801858352
:102DA000C8010E949C14ECEBF1E086E0DF011D926B
:102DB0008A95E9F7FB2C37CF4D875E878D859E85F9
:102DC0000E94DA14882359F2EE2049F28091C10161
:102DD000803208F4B5CF2091BC013091BD013A8317
:102DE00029831B82DD82CC828E83CE010196A6CF01
:102DF000C816D90698F1F601E81BF90BCF01F12CA2
:102E00008639910508F049C0FE2CEE2009F4A7CFC1
:102E1000351332C0241330C08091C10180FD23C01E
:102E2000982F907F01F1D80115968C931597903FBC
:102E300039F0982F907F905F8F70892B15968C9327
:102E4000C8010E949C1486E0F801ACEBB1E001904F
:102E50000D928A95E1F70E943B15E5CE80959095FD
:102E60008C0D9D1DCCCF86E0F801ACEBB1E001905C
:102E70000D928A95E1F7D7CE4D875E878D859E8529
:102E80000E94DA1481115CCF8091C101816080932E
:102E9000C101C8010E949C14C6CE7C2DD98AC88A63
:102EA0006E2D89890E94FB146BCFEE2009F457CF59
:102EB0004D875E878D859E850E94DA14F82E8823C3
:102EC00009F44DCF86E0F801ACEBB1E001900D9232
:102ED0008A95E1F78CEB91E00E942B110E94491535
:102EE000BACF81E08E25BDCE1F93CF93DF93CDB7B0
:102EF000DEB72C970FB6F894DEBF0FBECDBF4F8361
:102F0000588769877A878B879C87CE0107960E94AE
:102F1000AD15882369F08A859B85892B39F04F810F
:102F20005885842F85238F3F09F071C016E05FC05C
:102F300086E0FE013796DE01119601900D928A958A
:102F4000E1F78A859B85892B89F388859F81892371
:102F50008F3F61F320918B0130E0C90101968770AA
:102F6000992740918A014817190671F40E94D614D6
:102F700010928B0110928A0186E0ECEBF1E0DF0108
:102F80001D928A95E9F7D2CF96E0929FD001939F48
:102F9000B00D1124A457BE4FFE01319601900D9241
:102FA0009A95E1F780938B010E941A15BFCF819FFC
:102FB000C001112484579E4F0E94AD158823E9F06B
:102FC000E0918A011E9FF0011124E457FE4F4081D9
:102FD000518162817381848195810E940A1580915B
:102FE0008A0190E001968770992780938A018091E9
:102FF0008A0190918B018913DACF2C960FB6F89441
:10300000DEBF0FBECDBFDF91CF911F9108956985BF
:103010007A858B859C850E940A1588CFEF92FF9256
:103020000F931F93CF93DF938C01892B81F0F12CA9
:10303000EE24E394E8012196F8018491843770F43A
:10304000843008F05FC08130B1F08230A1F1DF91AF
:10305000CF911F910F91FF90EF900895853709F45C
:103060004CC008F43DC09CE7980F903780F78F77ED
:103070000E94271249C00E5F1F4FFE01849190E20B
:10308000980F983060F48770FE2D01C0FF0F8A956D
:10309000EAF78F2F0E94F01A0E949A1A02C00E942B
:1030A00030118F2D815030F2EFE9FFE03197F1F7C9
:1030B00000C00000F7CF0E5F1F4FFE01849190E229
:1030C000980F983050F48770FE2D01C0FF0F8A953D
:1030D000EAF78F2F0E94F61ADFCF0E942712E1CF66
:1030E0000E5F1F4FFE01C491C150D8F28FE99FE0DF
:1030F0000197F1F700C00000F7CF0E5F1F4FFE01F0
:10310000F490CFCF0E9430118E01CBCF08950E9452
:1031100086186093F8017093F9018093FA019093F7
:10312000FB010C94C61408950C9487180F931F93F9
:103130000091F8011091F9012091FA013091FB0101
:10314000602B712B822B932B1F910F910C9487185E
:103150000F931F930091F8011091F9012091FA014A
:103160003091FB0160237123822393231F910F91E0
:103170000C9487180F931F930091F8011091F90197
:103180002091FA013091FB01602771278227932754
:103190001F910F910C9487180C9486180C94CC18DE
:1031A0000E94CE186093F4017093F5018093F601AC
:1031B0009093F7010C94C61460E070E0CB010C947E
:1031C000D0180F931F9341E050E060E070E08A0157
:1031D0009B0104C0000F111F221F331F8A95D2F7D5
:1031E000C901B8011F910F910C94D0180F931F9330
:1031F00041E050E060E070E004C0440F551F661FDE
:10320000771F8A95D2F78091F4019091F501A091F2
:10321000F601B091F7018A019B01082B192B2A2B8B
:103220003B2BC901B8011F910F910C94D0180F933B
:103230001F9341E050E060E070E004C0440F551F70
:10324000661F771F8A95D2F7CB01BA0160957095FA
:10325000809590950091F4011091F5012091F6016F
:103260003091F70160237123822393231F910F91E3
:103270000C94D0180F931F9341E050E060E070E091
:1032800004C0440F551F661F771F8A95D2F780919F
:10329000F4019091F501A091F601B091F7018A0136
:1032A0009B01082719272A273B27C901B8011F912D
:1032B0000F910C94D0180F931F930091F40110916B
:1032C000F5012091F6013091F701602B712B822BD3
:1032D000932B1F910F910C94D0180F931F93009173
:1032E000F4011091F5012091F6013091F70160236E
:1032F0007123822393231F910F910C94D0180F9365
:103300001F930091F4011091F5012091F601309185
:10331000F70160277127822793271F910F910C9443
:10332000D01808952FE0929F800D1124982F977048
:1033300041E001C0440F9A95EAF7869586958695F7
:1033400095E0899FF0011124EE53FE4F90E080E05C
:1033500070E05191DF0111979B01082E02C0369554
:1033600027950A94E2F72170219525272423252704
:103370002C9301968530910561F708952FE0929F77
:10338000800D1124982F977086958695869525E057
:10339000829FF0011124EE53FE4F50E040E080E0A8
:1033A000219130E0092E02C0369527950A94E2F764
:1033B00021703327042E01C0220F0A94EAF7822BD2
:1033C0004F5F5F4F4530510559F70895BF92CF9237
:1033D000DF92EF92FF920F931F93CF93DF938C01B5
:1033E000C090F401D090F501E090F601F090F70163
:1033F0008091F8019091F901A091FA01B091FB013F
:10340000C82AD92AEA2AFB2ACFE1D0E0BC2ED7016C
:10341000C6010C2E04C0B695A795979587950A947A
:10342000D2F780FD0EC0219788F7B12C8B2DDF914C
:10343000CF911F910F91FF90EF90DF90CF90BF90B1
:103440000895B8018C2F0E946E06019761F3EECFAC
:10345000CF93DF93EC010E94E619BE01DF91CF917B
:103460000C946E061F93CF93DF93EB01909189012B
:10347000992331F0CB01DF91CF911F910C94281A41
:10348000882379F0CB010E94E619182F682FCE010E
:103490000E949219BE01812FDF91CF911F910C9450
:1034A0006E06CB010E94BE19182FF4CF682F8091B1
:1034B0000201909103010C94A31B682F80910201DB
:1034C000909103010C94AE1B809102019091030135
:1034D0000C94B91B8091FC0185958595859508957F
:1034E0008091FC018770089598E0899F90011124D4
:1034F000622B6093FC010C94F6189091FC0180956E
:1035000089238093FC01282F277061F4282F082E2F
:10351000000C330B9217130629F085958595859538
:103520000C94171908959091FC01977081E009F4AB
:1035300080E00895E0910201F09103018091200262
:103540008083E0910201F0910301808190911F023C
:10355000892B8083E0910201F09103018081909199
:103560001E02892B80839091FD01992381F0E091C7
:103570000201F09103018081892B808380910201F7
:10358000909103010E94461B81111092FD018091D0
:103590000201909103010C94001080912002089583
:1035A00090912002892B809320020895809590911C
:1035B00020029823909320020895109220020895EB
:1035C00090911F02892B80931F02089580959091FE
:1035D0001F02982390931F02089510921F020895CE
:1035E00090911E02892B80931E02089580959091E0
:1035F0001E02982390931E02089510921E020895B1
:103600008093FD0108951092FD0108958091FD01C0
:1036100008956DEE7EEF90E080E00E94632760E009
:1036200082E090E00E94452760E083E090E00E9405
:10363000452760E084E090E00E94452760E085E057
:1036400090E00E94452740E050E0BA0188E090E019
:103650000C94572790E080E00E943F2721E08D3EA8
:103660009E4F09F020E0822F089582E090E00C94B4
:10367000312783E090E00C94312784E090E00C94B3
:103680003127682F84E090E00C944527FC013196A7
:103690009C01205E3F4F80E0919191118F5FE21776
:1036A000F307D1F708959C01FC0132969FEF80E06B
:1036B0004191461751F09F3F19F4411101C0982FD5
:1036C0008F5F8E31A9F79F3F09F40895290F311DAF
:1036D00097FD3A95F90162830895FC013296809630
:1036E0002191261303C0DF0111971C92E817F907F7
:1036F000B9F70895E62FE695E695E695EF3169F07E
:10370000E80FF92FF11D677021E030E001C0220FB2
:103710006A95EAF78181822B81830895E62FE695E9
:10372000E695E695EF3171F0E80FF92FF11D67701E
:1037300021E030E001C0220F6A95EAF720958181EF
:1037400028232183089520910E01222329F020911E
:103750006D0227FD0C947A1B0C94531B20910E01D3
:10376000222329F020916D0227FD0C948E1B0C94CE
:103770006D1BFC01319680961192E817F907E1F76D
:10378000089580917302843039F11092220288E109
:1037900090E020E40FB6F894A895809360000FBEE7
:1037A0002093600080E00E944C0683B7817F846094
:1037B00083BF83B7816083BF7894889583B78E7FFA
:1037C00083BF0FB6F894A8958091600088618093BC
:1037D0006000109260000FBE089508950895CF9381
:1037E0000E94ED1B0E946B090E94EE1BC0E08C2F13
:1037F0000E94380A892B31F4CF5FC530C1F780E0D1
:10380000CF91089581E0FCCF0E94D6140E94F40F5E
:103810000C944C061F921FB61F9211248F939F93F6
:10382000AF93BF9380912202811113C080916902EE
:1038300090916A02A0916B02B0916C024196A11D19
:10384000B11D8093690290936A02A0936B02B093BA
:103850006C02BF91AF919F918F911F901FBE1F90DF
:10386000189582E084BD93E095BD9AEF97BD809353
:103870006E0008952FB7F8948091690290916A02C2
:10388000A0916B02B0916C022FBF0895CF92DF928E
:10389000EF92FF920F931F932FB7F8944091690214
:1038A00050916A0260916B0270916C022FBF6A01A5
:1038B0007B01EE24FF248C0130E020E0C016D1060D
:1038C000E206F30650F0481B590BCA011F910F91F5
:1038D000FF90EF90DF90CF90089541505109F3CFC2
:1038E00078941F921FB61F9211248F939F93AF93CA
:1038F000BF938091690290916A02A0916B02B0918E
:103900006C020196A11DB11D8093690290936A0219
:10391000A0936B02B0936C02BF91AF919F918F9176
:103920001F901FBE1F90189581E08093E00080E2F9
:103930008093D8001092C9008FE19EE40197F1F7BF
:1039400000C0000087E090EBDC0180937C02909344
:103950007D02A0937E02B0937F0288E19CE00FB6C7
:10396000F894A895809360000FBE90936000FFCFFD
:103970000E942A1B811102C00E94091B0E94351B54
:10398000809321020E943D1B90E090936E028093F1
:103990006D020E94391B682F70E090E080E00C946B
:1039A000941880914302089508950F931F93CF9325
:1039B000DF9300D00F92CDB7DEB78C010E94161FA7
:1039C000823011F0843021F583E089831B830A83E0
:1039D00082E08093E9008FEF9091E800815095FD9F
:1039E00006C095ED9A95F1F700008111F5CF809111
:1039F000E80085FF0DC050E040E063E070E0CE01DC
:103A000001960E94331F8091E8008E778093E80032
:103A10000F900F900F90DF91CF911F910F9108950C
:103A2000CF93DF9300D00F92CDB7DEB72091730212
:103A3000243029F522E02983805891099B838A83C9
:103A40002093E9008FEF9091E800815095FD06C02A
:103A500095ED9A95F1F700008111F5CF8091E8007E
:103A600085FF0DC050E040E063E070E0CE010196BC
:103A70000E94331F8091E8008E778093E8000F90BA
:103A80000F900F90DF91CF910895CF93DF93EC01CA
:103A90000E94161F823011F08430F9F480910E01DB
:103AA0008823F1F080916D0287FF1AC083E0809334
:103AB000E9008FEF9091E800815095FD06C095E1F7
:103AC0009A95F1F700008111F5CF8091E80050E060
:103AD00040E060E270E085FD1AC0DF91CF9108956B
:103AE00081E08093E9008FEF9091E800815095FD8F
:103AF00006C095ED9A95F1F700008111F5CF809100
:103B0000E80085FFEACF50E040E068E070E0CE01D9
:103B10000E94331F8091E8008E778093E80080E256
:103B2000FE01A3E2B2E001900D928A95E1F7D5CFB4
:103B300080917202811109C00E94C1200E941E2141
:103B40008091E20084608093E200089510927202F6
:103B50000895089508950C94041C42E061EC81E0FE
:103B60000E943F2042E061EC82E00E943F2042E25E
:103B700061EC83E00C943F2080917502833009F45E
:103B800055C030F4813071F1823009F491C008954C
:103B90008A3009F47DC08B3009F463C0893009F0A4
:103BA00044C080917402813209F03FC08091780254
:103BB00090917902009711F00297B9F58091E80091
:103BC000877F8093E8008091E80082FF2AC080917F
:103BD000F100809343028091E8008B778093E800A6
:103BE0000C94732080917402813AF9F48091E8007A
:103BF000877F8093E8008091780290917902892BE9
:103C000061F460E283E292E070E00E94821F8091A2
:103C1000E8008B778093E800089560E090E080E012
:103C2000F3CF809173028111CECF089580917402F9
:103C3000813AD9F78091780290917902892BA9F77E
:103C40008091E800877F8093E8008091E80080FF02
:103C5000FCCF80910E018093F1008091E8008E7777
:103C6000BDCF80917402813201F7809178029091EA
:103C70007902892BD1F68091E800877F8093E80054
:103C80000E9473208091760280930E010C94D614CA
:103C900080917402813249F68091E800877F809399
:103CA000E8000E9473208091770280934402089577
:103CB00080917402813A09F0B8CF8091E800877F43
:103CC0008093E8008091E80080FFFCCF809144025F
:103CD000C2CF84B7877F84BF0FB6F894A895809130
:103CE0006000886180936000109260000FBE80E8E1
:103CF00080936100109261000E9438100E94C120E0
:103D00000E941E218091E20084608093E2007894FA
:103D10000E949E230E943C1084E091E00E94EF0FDD
:103D200080917302853029F00E9444100E94820F16
:103D3000F7CF0E94C11B80917102882389F30E94F2
:103D4000EF1B882369F30E941D1FEACF0C94A81E65
:103D5000292F33272330310521F168F42130310533
:103D600009F449C02230310509F44AC090E080E0EE
:103D700030E020E029C02132310581F122323105C5
:103D8000A9F76330710590F7FB01EE0FFF1FEA5DA5
:103D9000FE4F208131816D5D7E4FFB01808190E07F
:103DA00013C099278130910599F0009741F0823036
:103DB000910589F00397D1F6EEECF3E002C0ECEE4A
:103DC000F3E0849190E09F01FA013183208308950C
:103DD000E0EEF3E0F6CFE4EDF3E0F3CF633071050E
:103DE00028F6660F771FFB01E45DFE4F20813181CD
:103DF00089E090E0E9CF82E190E024E434E0E4CF90
:103E000084E590E020EF33E0DFCF0895CF93C82F13
:103E10000E94051FC0934502CF91089580917302BF
:103E2000843011F482E0089581E008958091450284
:103E3000811102C00C940E1F089580E189BD82E1BA
:103E400089BD09B400FEFDCF8091D8008F7D80939D
:103E5000D8008091E00082608093E0008091E000D3
:103E600081FDFCCF0895AF92BF92CF92DF92FF9277
:103E70000F931F93CF93DF936C01EB018A010E9494
:103E80009220F82E811123C00115110539F0F80197
:103E900080819181C81BD90BC80ED91EB12CA12CD1
:103EA0002097A9F08091E80085FD22C08091E8006C
:103EB0008E778093E80001151105A1F0F80180814B
:103EC0009181A80EB91EB182A08285E0F82E8F2DB7
:103ED000DF91CF911F910F91FF90DF90CF90BF9016
:103EE000AF9008950E9492208823D1F2F82EEFCF50
:103EF000F60181916F018093F1002197FFEFAF1AD6
:103F0000BF0ACECFFC0180917A0290917B02861786
:103F10009707A0F06115710529F49091E8009E774C
:103F20009093E80090E06115710551F4911108C07B
:103F30008091E80082FF34C080E00895BC01F2CF98
:103F4000809173028823C1F18530C1F18091E8002E
:103F500083FD30C08091E80082FDEACF8091E800C7
:103F600080FFE1CF8091F3002091F200382F61159E
:103F7000710519F02830310558F091E028303105ED
:103F800009F090E02091E8002E772093E800CBCF55
:103F900081918093F100615071092F5F3F4FE7CF0E
:103FA00080917302882341F0853041F08091E800D0
:103FB00083FFBECF81E0089582E0089583E00895F5
:103FC000FC0180917A0290917B0286179707A0F0FE
:103FD0006115710529F48091E8008E778093E800DF
:103FE00090E06115710551F4911108C08091E800CD
:103FF00082FF35C080E00895BC01F2CF809173024A
:104000008823C9F18530C9F18091E80083FD31C072
:104010008091E80082FDEACF8091E80080FFE1CF47
:104020008091F3002091F200382F6115710519F08D
:104030002830310558F091E02830310509F090E042
:104040008091E8008E778093E800CBCF84918093B5
:10405000F1003196615071092F5F3F4FE6CF80919B
:104060007302882341F0853041F08091E80083FF9E
:10407000BDCF81E0089582E0089583E00895982FF0
:10408000973028F08F708093E90081E00895909335
:10409000E900242F762F50E0981731F07091EC0052
:1040A0002091ED005091F00021FD02C09F5FE8CF0C
:1040B0003091EB003E7F3093EB003091ED003D7F7F
:1040C0003093ED003091EB0031603093EB00709352
:1040D000EC002093ED005093F0002091EE0027FDBE
:1040E000E5CF80E008958091740287FF13C080912E
:1040F000E80082FF06C08091E8008B778093E8009B
:1041000004C0809173028111F2CF089580917302EF
:104110008823D9F38091E80080FFF8CF8091E800F0
:104120008E77ECCF2091E4003091E50085E6A9017F
:104130009091EC0090FF06C09091E80090FF06C0BF
:1041400080E008959091E80092FDFACF909173027B
:10415000992389F0953089F09091EB0095FD0FC07F
:104160002091E4003091E5004217530709F3815094
:10417000F1F684E0089582E0089583E0089581E0F7
:1041800008950E942F210E943721E0EEF0E0808107
:1041900081608083E8EDF0E080818F77808319BCB7
:1041A000A7EDB0E08C918E7F8C9380818F7E808391
:1041B0001092720208950F931F93CF93DF930E9482
:1041C0002F210E943721C8EDD0E088818F77888326
:1041D00088818068888388818F7D888319BC10924C
:1041E000730210926F02109271021092700200EE30
:1041F00010E0F80180818B7F8083888181608883D3
:1042000042E060E080E00E943F20E1EEF0E080814B
:104210008E7F8083E2EEF0E0808181608083808108
:1042200088608083F80180818E7F808388818061AF
:104230008883DF91CF911F910F910895E8EDF0E011
:1042400080818F7E8083E7EDF0E0808181608083D4
:1042500084E082BF81E0809372020C94DB20E8ED61
:10426000F0E080818E7F80831092E20008951092AA
:10427000DA001092E10008951F920F920FB60F928C
:1042800011242F933F934F935F936F937F938F935B
:104290009F93AF93BF93EF93FF938091E10082FFD1
:1042A0000BC08091E20082FF07C08091E1008B7F0C
:1042B0008093E1000E949D238091DA0080FF19C065
:1042C0008091D80080FF15C08091DA008E7F8093A6
:1042D000DA008091D90080FF94C080E189BD82E13D
:1042E00089BD09B400FEFDCF81E0809373020E9476
:1042F000981D8091E10080FF19C08091E20080FF4D
:1043000015C08091E2008E7F8093E2008091E200F0
:1043100080618093E2008091D80080628093D80011
:1043200019BC85E0809373020E94AA1D8091E10070
:1043300084FF29C08091E20084FF25C080E189BD0F
:1043400082E189BD09B400FEFDCF8091D8008F7D48
:104350008093D8008091E1008F7E8093E10080916E
:10436000E2008F7E8093E2008091E2008160809382
:10437000E20080916F02882309F449C084E08093B1
:1043800073020E94AB1D8091E10083FF29C08091E0
:10439000E20083FF25C08091E100877F8093E100E8
:1043A00082E08093730210926F028091E1008E7F11
:1043B0008093E1008091E2008E7F8093E200809103
:1043C000E20080618093E20042E060E080E00E94D1
:1043D0003F208091F00088608093F0000E94A91D2A
:1043E000FF91EF91BF91AF919F918F917F916F91CD
:1043F0005F914F913F912F910F900FBE0F901F90A3
:10440000189519BC109273020E94A61D72CF80915C
:10441000E30087FD02C081E0B2CF83E0B0CF1F92FE
:104420000F920FB60F9211242F933F934F935F93E8
:104430006F937F938F939F93AF93BF93CF93EF939C
:10444000FF93C091E900CF708091EC001092E900D9
:104450008091F000877F8093F00078940E944B2237
:104460001092E9008091F00088608093F000C09382
:10447000E900FF91EF91CF91BF91AF919F918F9103
:104480007F916F915F914F913F912F910F900FBE50
:104490000F901F9018951F93CF93DF93CDB7DEB782
:1044A000AA970FB6F894DEBF0FBECDBF84E792E0A7
:1044B0002091F100FC012193CF01F2E08C379F079E
:1044C000B9F70E94BC1D8091E80083FF1EC1809156
:1044D0007402909175029A3008F017C1E92FF0E04C
:1044E000E054F84D0C942B27803899F0823809F06D
:1044F0000CC1809178028F70873008F006C18093DC
:10450000E9008091EB0085FB882780F91092E90093
:1045100006C0809170029091710291118260909119
:10452000E800977F9093E8008093F1001092F100EB
:104530008091E8008E77E5C0882309F4D3C08230EB
:1045400009F0E3C0809176028111D6C08091780293
:104550008F702FEF280F263008F0D7C08093E90026
:104560002091EB0020FFC8C0933031F48091EB0024
:1045700080628093EB00C0C09091EB0090619093BB
:10458000EB0021E030E001C0220F8A95EAF720938A
:10459000EA001092EA008091EB008860EACF811176
:1045A000B4C0109176021F778091E3008078812B50
:1045B0008093E3008091E800877F8093E8000E9469
:1045C00073208091E80080FFFCCF8091E300806839
:1045D0008093E30082E0111183E08093730295C021
:1045E0008058823008F091C08091760290917702D5
:1045F0008C3D23E09207A1F583E08A838AE28983D8
:104600004FB7F894DE01139620E03EE051E2E32F2D
:10461000F0E050935700E49120FF03C0E295EF7063
:104620003F5FEF708E2F90E0EA30C0F0C7968D9319
:104630009D932F5F243159F74FBF8091E800877F0A
:104640008093E8006AE270E0CE0101960E94821F2A
:104650008091E8008B778093E80057C0C096E7CF41
:104660006091780270917902AE014F5F5F4F0E94B6
:10467000A61EBC01892B09F448C09091E800977FE1
:104680009093E80089819A810E94E01FE1CF8038F1
:10469000E1F58091E800877F8093E80080916F02C8
:1046A0008093F10045CF811130C090917602923015
:1046B00060F58091E800877F8093E80090936F0217
:1046C0000E94732080916F02882311F084E005C05E
:1046D0008091E30087FDFACF81E0809373020E940E
:1046E000AD1D13C080917602813079F481E0933062
:1046F00009F080E0809371021092E9008091E80057
:10470000877F8093E8000E9473208091E80083FFF8
:104710000AC08091E800877F8093E8008091EB00D9
:1047200080628093EB00AA960FB6F894DEBF0FBEAE
:10473000CDBFDF91CF911F9108950895CF938091C0
:104740007302882399F0C091E900CF708091EC004A
:1047500080FD0EC080E0C82B1092E9008091E80037
:1047600083FD0E944B22CF70C093E900CF91089542
:1047700080E8F1CF5058BB27AA270E94D2230C947F
:104780007D250E946F2538F00E94762520F039F4AF
:104790009F3F19F426F40C9445250EF4E095E7FBB1
:1047A0000C943F25E92F0E948E2558F3BA17620713
:1047B00073078407950720F079F4A6F50C94B025CB
:1047C0000EF4E0950B2EBA2FA02D0B01B90190012C
:1047D0000C01CA01A0011124FF27591B99F0593F70
:1047E00050F4503E68F11A16F040A22F232F342FB8
:1047F0004427585FF3CF469537952795A795F04006
:104800005395C9F77EF41F16BA0B620B730B840B1A
:10481000BAF09150A1F0FF0FBB1F661F771F881FD2
:10482000C2F70EC0BA0F621F731F841F48F487952A
:1048300077956795B795F7959E3F08F0B0CF93951C
:10484000880F08F09927EE0F9795879508950E9495
:104850003B240C947D250E94762558F00E946F25FC
:1048600040F029F45F3F29F00C943F2551110C943E
:10487000B1250C9445250E948E2568F39923B1F348
:10488000552391F3951B550BBB27AA276217730776
:10489000840738F09F5F5F4F220F331F441FAA1F0A
:1048A000A9F335D00E2E3AF0E0E832D091505040C6
:1048B000E695001CCAF72BD0FE2F29D0660F771F74
:1048C000881FBB1F261737074807AB07B0E809F05A
:1048D000BB0B802DBF01FF2793585F4F3AF09E3FDF
:1048E000510578F00C943F250C94B1255F3FE4F31B
:1048F000983ED4F3869577956795B795F7959F5F22
:10490000C9F7880F911D9695879597F90895E1E06D
:10491000660F771F881FBB1F621773078407BA07CC
:1049200020F0621B730B840BBA0BEE1F88F7E09527
:10493000089529F416F00C943F250C94B0250C949E
:1049400045250E949625A8F39638A0F707F80F9200
:10495000E8942BE33AEA48EB5FE70E9443260F9284
:104960000F920F924DB75EB70F920E94F925ECEAB5
:10497000F0E00E9448254F915F91EF91FF91E595FE
:10498000EE1FFF1F49F0FE57E0684427EE0F441F5B
:10499000FA95E1F74195550B0E94C3250F9007FE4C
:1049A0000C94B72508950E94962588F09F5798F09B
:1049B000B92F9927B751B0F0E1F0660F771F881F24
:1049C000991F1AF0BA95C9F714C0B13091F00E943E
:1049D000B025B1E008950C94B025672F782F882773
:1049E000B85F39F0B93FCCF3869577956795B39565
:1049F000D9F73EF490958095709561957F4F8F4FD4
:104A00009F4F0895E89409C097FB3EF490958095D8
:104A1000709561957F4F8F4F9F4F9923A9F0F92F84
:104A200096E9BB279395F695879577956795B79502
:104A3000F111F8CFFAF4BB0F11F460FF1BC06F5FE8
:104A40007F4F8F4F9F4F16C0882311F096E911C0FA
:104A5000772321F09EE8872F762F05C0662371F01B
:104A600096E8862F70E060E02AF09A95660F771F2F
:104A7000881FDAF7880F9695879597F9089597F923
:104A80009F6780E870E060E008959FEF80EC0895F4
:104A9000DF93CF931F930F93FF92EF92DF927B01EF
:104AA0008C01689406C0DA2EEF010E944026FE01B8
:104AB000E894A5912591359145915591A6F3EF0183
:104AC0000E94D223FE019701A801DA9469F7DF90D2
:104AD000EF90FF900F911F91CF91DF9108950024E7
:104AE0000A941616170618060906089500240A9453
:104AF00012161306140605060895092E0394000CD9
:104B000011F4882352F0BB0F40F4BF2B11F460FF67
:104B100004C06F5F7F4F8F4F9F4F089557FD905890
:104B2000440F551F59F05F3F71F04795880F97FB71
:104B3000991F61F09F3F79F087950895121613062B
:104B40001406551FF2CF4695F1DF08C0161617065A
:104B50001806991FF1CF869571056105089408958F
:104B6000E894BB2766277727CB0197F908959B0127
:104B7000AC0160E070E080E89FE30C9427240C9483
:104B80003F250C94A2260E949625D8F39923C9F3B9
:104B9000940F511DA3F39150504094F059F0882385
:104BA00032F0660F771F881F91505040C1F79E3F2B
:104BB00051052CF7880F911D9695879597F90895C3
:104BC0005F3FACF0983E9CF0BB2786957795679544
:104BD000B79508F4B1609395C1F7BB0F58F711F47E
:104BE00060FFE8CF6F5F7F4F8F4F9F4FE3CF0C94F5
:104BF000B125FA01DC01AA0FBB1F9B01AC01BF5715
:104C000028F4222733274427507820C0B75190F446
:104C1000AB2F0024469537952795011CA395D2F319
:104C2000002071F0220F331F441FB395DAF30ED02A
:104C30000C94BA2361307105A0E88A07B94630F4B4
:104C40009B01AC016627772788279078309621F062
:104C5000208331834283538308950E9440260C941D
:104C60007D250E946F2538F00E94762520F095233F
:104C700011F00C943F250C94452511240C94B1257A
:104C80000E948E2570F3959FC1F3950F50E0551F3C
:104C9000629FF001729FBB27F00DB11D639FAA2791
:104CA000F00DB11DAA1F649F6627B00DA11D661FE0
:104CB000829F2227B00DA11D621F739FB00DA11D01
:104CC000621F839FA00D611D221F749F3327A00DBB
:104CD000611D231F849F600D211D822F762F6A2F57
:104CE00011249F5750409AF0F1F088234AF0EE0FBC
:104CF000FF1FBB1F661F771F881F91505040A9F7E9
:104D00009E3F510580F00C943F250C94B1255F3FE8
:104D1000E4F3983ED4F3869577956795B795F79524
:104D2000E7959F5FC1F7FE2B880F911D969587959C
:104D300097F908959F930E94B2260F9007FCEE5FAB
:104D40000C94DB269F3F31F0915020F487957795A6
:104D50006795B795880F911D9695879597F9089552
:104D60000C9445250E949625D8F3E894E0E0BB27F3
:104D70009F57F0F02AED3FE049EC06C0EE0FBB0F65
:104D8000661F771F881F28F0B23A620773078407EF
:104D900028F0B25A620B730B840BE3959A9572F765
:104DA000803830F49A95BB0F661F771F881FD2F7A3
:104DB00090480C94A426EF93E0FF07C0A2EA2AEDE6
:104DC0003FE049EC5FEB0E94D2230E947D250F90CB
:104DD000039401FC9058E4EDF0E00C94EF269F93CF
:104DE0008F937F936F93FF93EF939B01AC010E948E
:104DF0002D26EF91FF910E9448252F913F914F91D1
:104E00005F910C942D26AA1BBB1B51E107C0AA1F62
:104E1000BB1FA617B70710F0A61BB70B881F991F5B
:104E20005A95A9F780959095BC01CD01089597FBFF
:104E3000072E16F4009407D077FD09D00E940327AF
:104E400007FC05D03EF4909581959F4F089570958D
:104E500061957F4F0895EE0FFF1F0590F491E02DAF
:104E60000994F999FECF92BD81BDF89A992780B532
:104E70000895A6E1B0E044E050E00C946B27A8E16F
:104E8000B0E042E050E00C946B27262FF999FECF5A
:104E900092BD81BDF89A019700B4021639F01FBA8D
:104EA00020BD0FB6F894FA9AF99A0FBE08950396AA
:104EB000272F0E9446270E944527252F0E9446271C
:104EC000242F0C9446270196272F0E9446270C94E6
:104ED0004527DC01CB01FC01F999FECF06C0F2BDEC
:104EE000E1BDF89A319600B40D9241505040B8F7A8
:104EF0000895F894FFCF9905A505A905AD05B1055D
:104F0000B505B905BD05C105C505C905CD05D10561
:104F1000D505D905DD05E105E505BA12BA12191363
:104F200019136013E712E712E7127C13E712141447
:104F300014147F14E712E71288141E141E141E1492
:104F40001E141E141E141E141E141E141E141E14D1
:104F50001E141E141E141E141E142B143914401477
:104F600047145114E714E714F014F014F214F01479
:104F7000F014F014E714E714F714F014F014F71415
:104F800074229C2285239C228523CF22F022852314
:044F9000472353233D
:104F94000102FE01D11C451DD41C101DD51C01901D
:104FA40091929395366667F1F0C6333231303534D9
:104FB400979694403639C5048F04560402041B04A2
:024FC4003404B3
:00000001FF
